:060000000A128A11ED2B2B
:1007DA0083010A128A11E32DF000831203130C1EFF
:1007EA00F72BF82BF22B700899000800F200720818
:1007FA000A128A11F1230A128A110A128A1175241D
:10080A000A128A11080001300A128A1147240A12B0
:10081A008A1102300A128A1147240A128A11080020
:10082A00813083160313990018159816181383122A
:10083A0003131813181698170800FF3083160313AA
:10084A0092008312031392101214871107101215C3
:10085A00971517159D151D15080083120313A0007F
:10086A000616200888001430F7007930F600F60BD7
:10087A003C2CF70B3C2C412C0A128A115C240A12DC
:10088A008A110800F80083120313061278088800F8
:10089A001430F7007930F600F60B512CF70B512C77
:1008AA00562C0A128A115C240A128A110800831231
:1008BA00031386161430F5007930F400F40B632C18
:1008CA00F50B632C682C8312031386121430F5007F
:1008DA007930F400F40B6F2CF50B6F2C742C080094
:1008EA0083120313981C7A2C7B2C7E2C1812181650
:1008FA008C2C181D812C822C862C1A089813981778
:10090A008C2C8C1E892C8A2C862C1A08F1007108D2
:10091A00080001300A128A1147240A128A11023089
:10092A000A128A1147240A128A1106300A128A11F7
:10093A0047240A128A110C300A128A1147240A1211
:10094A008A1138300A128A1147240A128A110800B9
:10095A0083120313A200C22C22080A128A11092543
:10096A000A128A110A128A1132240A128A110130D1
:10097A00F800780883120313A2072208031DC62C65
:10098A00D12C22080A128A1109250A128A11003862
:10099A00031DD02CD12CB12C0800770876047504DD
:1009AA007404031DD92CDA2CDB2CFF2C0130F00047
:1009BA000030F1000030F2000030F3007008F40259
:1009CA007108031C710FEA2CEB2CF5027208031C48
:1009DA00720FF02CF12CF6027308031C730FF62C1D
:1009EA00F72CF7027708760475047404031DFE2CAD
:1009FA00FF2CDB2C0800FE00FE1F082D83137E1837
:100A0A008317000808000408FE0005308A007E08E3
:100A1A008207003452346F34743461347434653468
:100A2A00203474346F34203472346934673468344F
:100A3A0074342134203400344D346F3476346534C0
:100A4A0020344234613463346B3477346134723421
:100A5A006434213420342034203400344D346F344B
:100A6A0076346534203446346F34723477346134E2
:100A7A0072346434213420342034203400344D3428
:100A8A006F347634653420344234613463346B34E1
:100A9A00773461347234643421342034203400349D
:100AAA00533474346F347034213420342034203475
:100ABA00203420342034203420342034203420348C
:100ACA0000344D346F3474346F34723420345334F8
:100ADA0074346134743465343A3420342034203424
:100AEA002034003452346F347434613474346534CD
:100AFA00203474346F3420346C346534663474347E
:100B0A0021342034003452346F34743461347434F0
:100B1A006534203474346F34203472346934673461
:100B2A006834743421340034503472346534733484
:100B3A00733420345334743461347234743400346A
:100B4A0053344B34343430344334203450345234F4
:100B5A003134363400344D3444343134303443344F
:100B6A002034443465346D346F34003454346F3473
:100B7A00203462346534673469346E342E34003478
:100B8A0083120313A000103020020318CD2DCE2D9E
:100B9A00D62D2008803E0A128A1147240A128A1189
:100BAA00E02D2008EC3EA0002008C03E0A128A115F
:080BBA0047240A128A11080009
:100BC600033083160313860080308700031000303D
:100BD6000318013088000310003003180130831613
:100BE60003178800031000300318013089000A1229
:100BF6008A118E240A128A110A128A1122240A12D2
:100C06008A110A128A1115240A128A1183120313F1
:100C1600061386130A128A1108240A128A11023050
:100C26000A128A11C5250A128A11A2300A128A11DD
:100C3600AD240A128A1114300A128A11C5250A1225
:100C46008A1197300A128A11AD240A128A110030CD
:100C5600F7000130F6008630F500A030F4000A12E5
:100C66008A11D2240A128A110A128A1108240A1237
:100C76008A118B300A128A11AD240A128A11143095
:100C86000A128A11C5250A128A11AD300A128A1172
:100C9600AD240A128A110030F7000030F600C33086
:100CA600F5005030F4000A128A11D2240A128A1171
:100CB60003300A128A11FB230A128A11013A031918
:100CC600652E662E5B2E0A128A1108240A128A11D4
:100CD60018300A128A11FB230A128A11831203138F
:100CE600A50019300A128A11FB230A128A118312EF
:100CF6000313A60016300A128A11FB230A128A1160
:100D060083120313A30017300A128A11FB230A1257
:100D16008A1183120313A4008715071404300A12DC
:100D26008A11FB230A128A110038031D9B2E9C2E62
:100D3600AF2E14300A128A11C5250A128A112530DF
:100D46000A128A11AD240A128A111E308312031365
:100D560095001E309B006B2E06300A128A11FB236B
:100D66000A128A110038031DB92EBA2ECD2E143060
:100D76000A128A11C5250A128A1136300A128A11F8
:100D8600AD240A128A11DC30831203139500DC307D
:100D96009B006B2E07300A128A11FB230A128A1156
:100DA6000038031DD72ED82EE92E14300A128A11C8
:100DB600C5250A128A1169300A128A11AD240A124F
:100DC6008A11DC30831203139500AC2E05300A120B
:100DD6008A11FB230A128A110038031DF32EF42E02
:100DE600052F14300A128A11C5250A128A117A3083
:100DF6000A128A11AD240A128A111E3083120313B5
:100E06009500CA2E831203132508031D0B2F5E2F90
:100E160014300A128A11C5250A128A1125300A12BF
:100E26008A11AD240A128A11831203132308031DA3
:100E36001D2F352F250823020318222F232F2C2F91
:100E46002303FF3A25078C3EFF3A013EFF3E9500FD
:100E56002E2F7330950025088C3EFF3A013EFF3E4B
:100E66009B006B2E2408031D392F512F25082402C1
:100E760003183E2F3F2F482F2403FF3A25078C3EA9
:100E8600FF3A013EFF3E9B004A2F73309B00250828
:100E96008C3EFF3A013EFF3E95006B2E25088C3EA8
:100EA600FF3A013EFF3E950025088C3EFF3A013E83
:100EB600FF3E9B006B2E2608031D622FA32F1430C6
:100EC6000A128A11C5250A128A1113300A128A11CA
:100ED600AD240A128A11831203132308031D742FEB
:100EE600862F260823020318792F7A2F802F2303B3
:100EF600FF3A26078C3E9B00822F8C309B002608EB
:100F06008C3E95006B2E2408031D8A2F9C2F2608E5
:100F1600240203188F2F902F962F2403FF3A2607BB
:100F26008C3E9500982F8C30950026088C3E9B00B1
:100F36006B2E26088C3E950026088C3E9B006B2E59
:100F46002308031DA72FBF2F14300A128A11C525A7
:100F56000A128A1169300A128A11AD240A128A11FC
:100F6600831203132308783E95002308783EFF3A40
:100F7600013EFF3E9B006B2E2408031DC32FDB2F73
:100F860014300A128A11C5250A128A1101300A1272
:100F96008A11AD240A128A11831203132408783E9B
:100FA600FF3A013EFF3E95002408783E9B006B2EDB
:100FB60000300A128A11C5250A128A1158300A12FF
:100FC6008A11AD240A128A1114300A128A11C52513
:100FD6000A128A1147300A128A11AD240A128A119E
:100FE6007F308312031395007F309B00871507140B
:0A0FF6006B2EFC2F0A128A1100284E
:02400E00E22CA2
:00000001FF
