:060000000A128A11F62B22
:1007EC0083010A128A11ED2DF000831203130C1EE3
:1007FC00002C012CFB2B700899000800F2007208E9
:10080C000A128A11FA230A128A110A128A117E24F8
:10081C000A128A11080001300A128A1150240A1295
:10082C008A1102300A128A1150240A128A11080005
:10083C008130831603139900181598161813831218
:10084C0003131813181698170800FF308316031398
:10085C0092008312031392101214871107101215B1
:10086C00971517159D151D15080083120313A0006D
:10087C000616200888001430F7007930F600F60BC5
:10088C00452CF70B452C4A2C0A128A1165240A12A6
:10089C008A110800F80083120313061278088800E6
:1008AC001430F7007930F600F60B5A2CF70B5A2C53
:1008BC005F2C0A128A1165240A128A11080083120D
:1008CC00031386161430F5007930F400F40B6C2CFD
:1008DC00F50B6C2C712C8312031386121430F5005B
:1008EC007930F400F40B782CF50B782C7D2C080067
:1008FC0083120313981C832C842C872C1812181623
:10090C00952C181D8A2C8B2C8F2C1A089813981741
:10091C00952C8C1E922C932C8F2C1A08F10071089C
:10092C00080083120313A0001030200203189F2C20
:10093C00A02CA82C2008803E0A128A1150240A12DE
:10094C008A11B22C2008EC3EA0002008C03E0A12EE
:10095C008A1150240A128A11080001300A128A11D5
:10096C0050240A128A1102300A128A1150240A12D7
:10097C008A1106300A128A1150240A128A110C307C
:10098C000A128A1150240A128A1138300A128A115A
:10099C0050240A128A11080077087604750474042E
:1009AC00031DD92CDA2CDB2CFF2C0130F00000308D
:1009BC00F1000030F2000030F3007008F40271080E
:1009CC00031C710FEA2CEB2CF5027208031C720F3E
:1009DC00F02CF12CF6027308031C730FF62CF72C79
:1009EC00F7027708760475047404031DFE2CFF2CA3
:1009FC00DB2C0800FE00FE1F082D83137E188317C6
:100A0C00000808000408FE0005308A007E088207F2
:100A1C00003452346F34743461347434653420349B
:100A2C0074346F34203472346934673468347434F9
:100A3C002134203400344D346F3476346534203412
:100A4C004234613463346B347734613472346434DB
:100A5C00213420342034203400344D346F34763437
:100A6C006534203446346F347234773461347234E4
:100A7C006434213420342034203400344D346F3429
:100A8C007634653420344234613463346B347734D7
:100A9C0061347234643421342034203400345334BF
:100AAC0074346F34703421342034203420342034A6
:100ABC0020342034203420342034203420340034AA
:100ACC004D346F3474346F34723420345334743482
:100ADC006134743465343A34203420342034203476
:100AEC00003452346F3474346134743465342034CB
:100AFC0074346F3420346C3465346634743421347B
:100B0C002034003452346F347434613474346534AA
:100B1C00203474346F34203472346934673468345C
:100B2C007434213400345034723465347334733477
:100B3C002034533474346134723474340034533488
:100B4C004B34343430344334203450345234313414
:100B5C00363400344D34443431343034433420345E
:100B6C00443465346D346F34003454346F34203471
:100B7C0062346534673469346E342E340034831235
:100B8C000313A200DA2D22080A128A1109250A126F
:100B9C008A110A128A113B240A128A110130F800B8
:100BAC00780883120313A2072208031DDE2DE92DFA
:100BBC0022080A128A1109250A128A110038031D0B
:080BCC00E82DE92DC92D0800F8
:100BDA000330831603138600803087000310003029
:100BEA0003180130880006309F000A128A11B324C4
:100BFA000A128A110A128A112B240A128A110A125B
:100C0A008A111E240A128A118312031306138613E9
:100C1A000A128A1111240A128A1102300A128A113E
:100C2A0097240A128A11A2300A128A11C5250A12B9
:100C3A008A1114300A128A1197240A128A119730DB
:100C4A000A128A11C5250A128A110030F7000130EA
:100C5A00F6008630F500A030F4000A128A11D22478
:100C6A000A128A110A128A1111240A128A118B3065
:100C7A000A128A11C5250A128A1114300A128A1117
:100C8A0097240A128A11AD300A128A11C5250A124E
:100C9A008A110030F7000030F600C330F5005030FA
:100CAA00F4000A128A11D2240A128A1103300A1293
:100CBA008A1104240A128A11013A0319652E662E32
:100CCA005B2E0A128A1111240A128A1118300A128A
:100CDA008A1104240A128A1183120313A5001930F7
:100CEA000A128A1104240A128A1183120313A60013
:100CFA0016300A128A1104240A128A118312031363
:100D0A00A30017300A128A1104240A128A118312C4
:100D1A000313A4008715071404300A128A11042445
:100D2A000A128A110038031D9B2E9C2EAF2E1430F6
:100D3A000A128A1197240A128A1125300A128A1174
:100D4A00C5250A128A111E308312031395001E301C
:100D5A009B006B2E06300A128A1104240A128A1189
:100D6A000038031DB92EBA2ECD2E14300A128A115C
:100D7A0097240A128A1136300A128A11C5250A12D4
:100D8A008A11DC30831203139500DC309B006B2E32
:100D9A0007300A128A1104240A128A110038031D24
:100DAA00D72ED82EE92E14300A128A1197240A1245
:100DBA008A1169300A128A11C5250A128A11DC3091
:100DCA00831203139500AC2E05300A128A110424EB
:100DDA000A128A110038031DF32EF42E052F14303F
:100DEA000A128A1197240A128A117A300A128A116F
:100DFA00C5250A128A111E30831203139500CA2EC2
:100E0A00831203132508031D0B2F5E2F14300A12B9
:100E1A008A1197240A128A1125300A128A11C525C5
:100E2A000A128A11831203132308031D1D2F352F5B
:100E3A00250823020318222F232F2C2F2303FF3ADE
:100E4A0025078C3EFF3A013EFF3E95002E2F733058
:100E5A00950025088C3EFF3A013EFF3E9B006B2E13
:100E6A002408031D392F512F2508240203183E2F69
:100E7A003F2F482F2403FF3A25078C3EFF3A013EB5
:100E8A00FF3E9B004A2F73309B0025088C3EFF3A99
:100E9A00013EFF3E95006B2E25088C3EFF3A013E2F
:100EAA00FF3E950025088C3EFF3A013EFF3E9B001F
:100EBA006B2E2608031D622FA32F14300A128A11E3
:100ECA0097240A128A1113300A128A11C5250A12A6
:100EDA008A11831203132308031D742F862F2608F1
:100EEA0023020318792F7A2F802F2303FF3A26072C
:100EFA008C3E9B00822F8C309B0026088C3E9500EE
:100F0A006B2E2408031D8A2F9C2F260824020318FF
:100F1A008F2F902F962F2403FF3A26078C3E950099
:100F2A00982F8C30950026088C3E9B006B2E260845
:100F3A008C3E950026088C3E9B006B2E2308031DD1
:100F4A00A72FBF2F14300A128A1197240A128A1166
:100F5A0069300A128A11C5250A128A1183120313EB
:100F6A002308783E95002308783EFF3A013EFF3E6B
:100F7A009B006B2E2408031DC32FDB2F14300A128B
:100F8A008A1197240A128A1101300A128A11C52578
:100F9A000A128A11831203132408783EFF3A013E8B
:100FAA00FF3E95002408783E9B006B2E00300A1203
:100FBA008A1197240A128A1158300A128A11C525F1
:100FCA000A128A1114300A128A1197240A128A11F3
:100FDA0047300A128A11C5250A128A117F308312F4
:100FEA00031395007F309B00871507146B2EFC2F87
:060FFA000A128A11002812
:02400E00323F3F
:00000001FF
