:060000000A128A11F72B21
:1007EE0083010A128A11F32DF000831203130C1EDB
:1007FE00012C022CFC2B70089900080001300A1203
:10080E008A112C240A128A1102300A128A112C24FF
:10081E000A128A11080081308316031399001815E5
:10082E009816181383120313181318169817080026
:10083E00F20072080A128A11FB230A128A110A1296
:10084E008A116E240A128A110800F800831203130B
:10085E000612780888001430F7007930F600F60B8F
:10086E00362CF70B362C3B2C0A128A1187240A12CF
:10087E008A11080083120313A000061620088800B0
:10088E001430F7007930F600F60B4B2CF70B4B2C8F
:10089E00502C0A128A1187240A128A110800FF307E
:1008AE008316031392008312031392101214031073
:1008BE00003003180130950003100030031801308A
:1008CE009B001215971517159D151D1508008312FF
:1008DE000313981C732C742C772C18121816852C55
:1008EE00181D7A2C7B2C7F2C1A0898139817852CA0
:1008FE008C1E822C832C7F2C1A08F10071080800A4
:10090E008312031386161430F5007930F400F40BBD
:10091E008E2CF50B8E2C932C83120313861214300F
:10092E00F5007930F400F40B9A2CF50B9A2C9F2CD1
:10093E00080083120313A000103020020318A82C05
:10094E00A92CB12C2008803E0A128A112C240A12DE
:10095E008A11BB2C2008EC3EA0002008C03E0A12D3
:10096E008A112C240A128A11080001300A128A11E7
:10097E002C240A128A1102300A128A112C240A120D
:10098E008A1106300A128A112C240A128A110C308E
:10099E000A128A112C240A128A1138300A128A116C
:1009AE002C240A128A11080083120313A200F02CC1
:1009BE0022080A128A1109250A128A110A128A11AC
:1009CE0041240A128A110130F800780883120313A9
:1009DE00A2072208031DF42CFF2C22080A128A11EA
:1009EE0009250A128A110038031DFE2CFF2CDF2C5C
:1009FE000800FE00FE1F082D83137E1883170008C3
:100A0E0008000408FE0005308A007E0882070034C4
:100A1E004D346F347634653420344234613463346B
:100A2E006B3477346134723464342134203420349E
:100A3E00203400344D346F347634653420346634CB
:100A4E006F34723477346134723464342134203428
:100A5E002034203400344D346F34763465342034F1
:100A6E004234613463346B347734613472346434B9
:100A7E0021342034203400344D346F3476346534D0
:100A8E00203446346F3472347734613472346434C3
:100A9E00213420342034203400344D346F347434F7
:100AAE006F34723420345334743461347434653496
:100ABE003A34203420342034203400345334743407
:100ACE006F347034213420342034203420342034D8
:100ADE002034203420342034203420340034523456
:100AEE006F347434613474346534203474346F3438
:100AFE0020347234693467346834743421340034E9
:100B0E0052346F3474346134743465342034743434
:100B1E006F3420346C3465346634743421342034AC
:100B2E000034503472346534733473342034533497
:100B3E00743461347234743400344D34443431348A
:100B4E00303443342034443465346D346F340034DF
:100B5E0053344B34343430344334203450345234E0
:100B6E0031343634003454346F34203462346534C6
:100B7E00673469346E342E34003477087604750485
:100B8E007404031DCB2DCC2DCD2DF12D0130F00095
:100B9E000030F1000030F2000030F3007008F40273
:100BAE007108031C710FDC2DDD2DF5027208031C7C
:100BBE00720FE22DE32DF6027308031C730FE82D5E
:100BCE00E92DF7027708760475047404031DF02DE1
:060BDE00F12DCD2D0800F1
:100BE600033083160313860080308700031000301D
:100BF60003180130880003100030031801308316F3
:100C060003178800031000300318013089000A1208
:100C16008A11BC240A128A110A128A1156240A124F
:100C26008A110A128A1112240A128A1183120313D4
:100C3600061386130A128A1105240A128A11023033
:100C46000A128A11A0240A128A1196300A128A11EF
:100C5600DB240A128A1114300A128A11A0240A12FD
:100C66008A11A1300A128A11DB240A128A11003075
:100C7600F7000130F6008630F500A030F4000A12C5
:100C86008A11C4250A128A110A128A1105240A1227
:100C96008A118A300A128A11DB240A128A11143048
:100CA6000A128A11A0240A128A11AC300A128A1179
:100CB600DB240A128A110030F7000030F600C33038
:100CC600F5005030F4000A128A11C4250A128A115E
:100CD60003300A128A111F240A128A11013A0319D3
:100CE600752E762E6B2E0A128A1105240A128A1187
:100CF60018300A128A111F240A128A11831203134A
:100D0600A50019300A128A111F240A128A118312A9
:100D16000313A60016300A128A111F240A128A111A
:100D260083120313A30017300A128A111F240A1212
:100D36008A1183120313A40004300A128A111F2495
:100D46000A128A110038031DA92EAA2EBF2E1430AE
:100D56000A128A11A0240A128A1113300A128A1161
:100D6600DB240A128A118312031387110710DC3061
:100D76009500DC309B007B2E06300A128A111F2458
:100D86000A128A110038031DC92ECA2EDB2E143012
:100D96000A128A11A0240A128A1124300A128A1110
:100DA600DB240A128A118312031387150714BA2E3D
:100DB60007300A128A111F240A128A110038031DED
:100DC600E52EE62EF62E14300A128A11A0240A12F7
:100DD6008A1179300A128A11DB240A128A118312C7
:100DE60003138715B92E05300A128A111F240A1219
:100DF6008A110038031D002F012F112F14300A12FB
:100E06008A11A0240A128A1168300A128A11DB2478
:100E16000A128A11831203138711D92E8312031320
:100E26002508031D172F5A2F14300A128A11A024E1
:100E36000A128A1135300A128A11DB240A128A1123
:100E460083120313871107102308031D2B2F3D2F31
:100E5600250823020318302F312F372F2303FF3A9B
:100E660025078C3E9500392F8C30950025088C3E41
:100E76009B007B2E2408031D412F532F2508240297
:100E86000318462F472F4D2F2403FF3A25078C3E84
:100E96009B004F2F8C309B0025088C3E95007B2EA7
:100EA60025088C3E950025088C3E9B007B2E260847
:100EB600031D5E2FA12F14300A128A11A0240A12D4
:100EC6008A1101300A128A11DB240A128A1183124E
:100ED6000313871507142308031D722F842F260872
:100EE60023020318772F782F7E2F2303FF3A260736
:100EF6008C3E9B00802F8C309B0026088C3E9500F4
:100F06007B2E2408031D882F9A2F260824020318F7
:100F16008D2F8E2F942F2403FF3A26078C3E9500A3
:100F2600962F8C30950026088C3E9B007B2E26083B
:100F36008C3E950026088C3E9B007B2E2308031DC5
:100F4600A52FBC2F14300A128A11A0240A128A1166
:100F560079300A128A11DB240A128A1183120313CA
:100F6600871507102308783E95002308783E9B00D6
:100F76007B2E2408031DC02FD72F14300A128A1186
:100F8600A0240A128A1168300A128A11DB240A1276
:100F96008A1183120313871107142408783E9500DB
:100FA6002408783E9B007B2E00300A128A11A0246A
:100FB6000A128A1146300A128A11DB240A128A1191
:100FC60014300A128A11A0240A128A1157300A1202
:100FD6008A11DB240A128A1103100030031801302B
:100FE60083120313950003100030031801309B0091
:0A0FF6007B2EFC2F0A128A1100283E
:02400E00E22CA2
:00000001FF
