:100000000A128A111E2E00308A000408840A820710
:10001000003420342034203445346E347434653454
:0E002000723420344B34653479343A34003471
:100BA800F00070088312031388000800F101031491
:100BB800F10D00300A128A1150260A128A11080013
:100BC8000230F4007408F10000300A128A1150262D
:100BD8000A128A110800C030F4007408F1000030CD
:100BE8000A128A1150260A128A110800F000701899
:100BF800FE2D022E831203138616052E831203136D
:100C080086120800F00070180A2E0E2E83120313A5
:100C18000616112E8312031306120800F500750834
:100C2800F4007408F10001300A128A1150260A12E1
:100C38008A110800A001A101A201A301A401A50134
:100C4800A601A701A801A90183010A128A11F62E9B
:100C5800FF30F1007108F200312E0A128A115F2765
:100C68000A128A11F1007108F2007208FF3A03199A
:100C78003E2E3F2E312E422E422E422E0A128A112D
:100C88005F270A128A11FF3A031D4B2E4C2E422E63
:100C98004D2E72084F2E0800F30073080A128A11AD
:100CA80006260A128A1171080A128A11D4250A1214
:100CB8008A1101300A128A11FA250A128A11A630FD
:100CC800F200F20B652E640000300A128A11FA2530
:100CD8000A128A11F930F2006400F20B702E742E99
:100CE800640000300A128A1106260A128A1100309E
:100CF8000A128A11D4250A128A11080001300A1230
:100D08008A11FA250A128A110A30F500BC30F4005B
:100D1800F40B8C2EF50B8C2E64003830F40074081C
:100D2800F10000300A128A1150260A128A11063080
:100D3800F4007408F10000300A128A1150260A12D1
:100D48008A110C30F4007408F10000300A128A117C
:100D580050260A128A110A128A11DA250A128A11F1
:100D68000800F700E82E770884000A128A11032089
:100D78000A128A110A3A0319C22EC32ED02E7708F6
:100D880084000A128A1103200A128A110D3A031DDF
:100D9800CE2ECF2ED62ED02E0A128A11EF250A1269
:100DA8008A11E32E770884000A128A1103200A1296
:100DB8008A110A128A1112260A128A11E32E0130A8
:100DC800F6007608F707E82E770884000A128A11D9
:100DD80003200A128A110038031DF32EF42EB72EB1
:100DE800F52E080083120313850186018701880107
:100DF800831603138501033086000F3087008801AE
:100E080083160317880189010A128A1182260A1299
:100E18008A110E2F83120313061786130A128A11DA
:100E2800E4250A128A1101300A128A11B5260A121B
:100E38008A110A128A11EF250A128A110030FA0063
:100E48000030FB0000307B02113003197A02031CCA
:100E58002E2F2F2F312F552F552F0A128A112C265E
:100E68000A128A11F8007808F90079080A128A111A
:100E780012260A128A118312031340308606803024
:100E880086060130FA070318FB0A0030FB0700301A
:100E98007B02113003197A02031C532F542F312F70
:100EA800552F0A128A11DA250A128A110E2F0E2FCF
:100EB8000A128A11002883120313071287160717CC
:100EC80087170430F000F00B672F6A2F8312031383
:100ED80087196F2F702F732F3130FF2FFF2F0719AE
:100EE800762F772F7A2F3230FF2FFF2F87187D2FFD
:100EF8007E2F812F3330FF2FFF2F0718842F852F48
:100F0800882F4130FF2FFF2F0716871207178717E3
:100F18000430F000F00B8E2F912F831203138719E2
:100F2800962F972F9A2F3430FF2FFF2F07199D2FB9
:100F38009E2FA12F3530FF2FFF2F8718A42FA52F05
:100F4800A82F3630FF2FFF2F0718AB2FAC2FAF2F4E
:100F58004230FF2FFF2F0716871607138717043015
:100F6800F000F00BB52FB82F831203138719BD2F8C
:100F7800BE2FC12F3730FF2FFF2F0719C42FC52FC2
:100F8800C82F3830FF2FFF2F8718CB2FCC2FCF2F0C
:100F98003930FF2FFF2F0718D22FD32FD62F4330EA
:100FA800FF2FFF2F07168716071787130430F00047
:100FB800F00BDC2FDF2F831203138719E42FE52FA3
:100FC800E82F2A30FF2FFF2F0719EB2FEC2FEF2FD9
:100FD8003030FF2FFF2F8718F22FF32FF62F2330F3
:100FE800FF2FFF2F0718F92FFA2FFD2F4430FF2F5F
:080FF800FF2FFF30FF2F08005E
:02400E00E22CA2
:00000001FF
